:4000000000400020590B0000FD010000FF01000000000000000000000000000000000000000000000000000000000000FD0100000000000000000000FD010000FD01000004
:40004000FD010000FD010000FD010000FD010000FD010000FD010000FD010000FD010000FD010000FD010000FD010000FD010000FD010000FD010000FD010000FD010000A0
:40008000FD010000FD010000FD010000FD010000FD010000FD010000000000000000000000000000000000000000000000000000000000000000000000000000000000004C
:4000C00000000000000000000000000000000000000000000000000000000000000000009400001069770000C11180310000000000000000000000000000000000000000F9
:4001000010B5064C2378002B07D1054B002B02D0044800E000BF0123237010BD000500200000000090220000044B10B5002B03D00349044800E000BF10BDC046000000005B
:400140000405002090220000402292029A1A92467047C046174B002B00D1134B9D46FFF7F3FF00218B460F461348144A121A01F0F2FF0E4B002B00D098470D4B002B00D04A
:4001800098470020002104000D000D48002802D00C4800E000BF01F0B1FF2000290000F047FD01F095FFC0460000080000000000190C00000040002000050020DC14002061
:4001C0000000000000000000BFF34F8F034B044ADA60BFF34F8FC046FDE7C04600ED00E00400FA05034B1A7801231A4201D1024A137070470907002058050020FEE7FEE71A
:4002000070B51D4B1D4CE15800292AD00C3BE1504B0521D5E26D1A4DE36D52042B600023520F93421EDB07240F222B68580A20401A40012A02D11B0B23420DD0114A124B4C
:400240001478002C02D01C78A04205D001241470402218700D4B1A608B0502D501220B4B1A6070BD1800183080002658013398002E50DBB2D5E7C0460C05000000000A406B
:400280004C0A0020080700206C0A0020440A002030B5002915D001230F250B4C41185B420278013053401A092B409B001B595A4013092A409200125953408842F0D1D843CC
:4002C00030BD01235B42FAE73C22000070B5437902791B0281791A43C379090411431B0604000622194350D042780378857812021A432D042A438025C378AD021B06134394
:4003000058180622A84240D21800FFF7C1FF220023005932117858331B780902194323005A331A7801331B78120411431B0606220B43834229D1617B207BA37B0902E47BB5
:4003400008431B04034324061C43AC421DD2637820780F491B0203438B4216D12000E179A279090211430C390C30FFF791FF617A237AA27A09021943E37A120411431B06A7
:4003800000220B43834200D00632100070BDC04646490000030010B50720012B09D10748FFF794FF064B04221978002802D19143197010BD0A4306201A70FAE780FF0100D6
:4003C000380A00200B4B00209B681A0F11070A2A0AD0F0221206914207D1074A9B18132B05D8064A9B00985870470548FCE70548FAE7C04600001040FFFFFF0F84210000E8
:4004000023005000FF0052000020074B1A6B824208DA064A98581C238000034004485843044BC0187047C04600000340080F000040420F0000366E01F8B5012403222600A1
:400440000B4B9D6A9F6AAD09996ABF0815401740AE40BC400023114202D1FFF7D5FF03006008C018F84076088019E840F8BDC0460000034010B5FFF7DFFF041E12D0013C5B
:400480000949200001F098FDFA21084B013018708900200001F090FD054B01301860054BC003186010BDC04640420F0084040020800400207C0400201C4BF7B58200D6585F
:4004C000182343431A4AD318C22292009B8AB4589BB2E405E40D221C082C00D9082218274743134D1C00AC463D0092B20A706544991889B20195A5B2A9420CD800248B4235
:4005000000D8141C18225043094A1B1915189BB20120AB82FEBDD025AD007559AC466746019DAD682F550134E5E7C0462C220000D8090020764B8200F0B5D458002385B0D4
:4005400002AAD371734A0500A6580222FF32164200D083E00127F3063CD5182343436E4AD31801931B79042B10D002ABD91DFFF7A3FF0521019B38009A8A197192B21B6973
:400580009847FC23012207001B01E25018236B43614AD31802221A7100229A82812380229B00E15852020A43E250E2585B490A40E25001225A49635893436350F8231021BC
:4005C0001B01E250574AA3588B43A350F42330221B01E250730600D473E018226A434E4B9B181A79022A40D1626ED20639D504210022197110001B699847002835D0F822B5
:4006000001231201A350464AA350F423302245491B01E2506058203A02436250424A515D012200294AD1E266E65001263F4BE75837424CD10120F8231B01E7503C4BE658C6
:40064000F30704D502AB2800D91DFFF735FFFC231B01E65000280DD005B0F0BD1E001F00B8E705221A71002FCFD10223E366F4231B01E6501820236868435B005B082360F7
:400680000223254D264A2D182B710023F821AB82A3500122102552422248090162502158A9432150F4210901625080316250E366802322681B0613432360CDE71D494A55B1
:4006C000B2E7F4231B01E650002FAED1D2E718226A43114B04219B1800221B69100098470028A7D10E4AA358B343A350F8231B01E650812380229B00E15852020A43E250AB
:40070000E25806490A40E2500223E36693E7C0462C2200004C0F0000D8090020FFFFFEFF880F0000480F00008E0A00208C0F0000CC0F0000920A002010B50320FFF7FAFE73
:4007400010BD0000084B03219A6A100008400A4206D01A6B002A04DA00209A6A8A439A6270470248FCE7C0460000034003004A000321064B1A6B8A43110002220A43102149
:400780001A631A6B0A431A637047C04600001040F0B501240A688440244B002A43D15C644A6803279446072216004743BE409D68B54366463240BA4015433207D20F82402D
:4007C0009D609D698700A5432A430F25AC46BD406646174C9A6122684000AA4315000A7A3240BA402A43226003248440DA680C3EA243CC682640864080241643DE600A69D8
:4008000064041206986822400A4C204002439A604A6980215206890498680A40064901400A439A60F0BD1C64BAE7C0460003044000030240FFFFFFFEFFFFFFFD044B1B6860
:40084000DB0703D5034B10308000C1507047C04600001040000000208023F0B5C9B000909B02984251D2802208A8520001F06AFC274B06AE0693FF23264D7360264BAE60E6
:400880006B60C046FFF79EFD041E3BD101F0D9F9224B234F029302AB01900397AB60214B6B60C046FFF78EFD80221F4B1206041E1A6324D11D4BAB601D4B6B60C046FFF776
:4008C00081FD041E1BD11B4B009AAE6033603368100A00041843184B30606B60C046FFF771FD164A04AB04920597AB60144B04006B60C046FFF766FD002C00D1040001981C
:4009000001F0A3F9200049B0F0BD0E4CFAE7C046B6D700000000104004000080B6E900001C0500201600008000000340B6E8000015000080B6D8000005000080B6EA000023
:40094000170000802100520010B5104A030012780E20002A18D00E4A073812889A4213D80C4A12889A4203D20B4A12889A420BD1802207209200934206D21802FFF76CFFBE
:4009800040B2002800D0052010BDC04609070020880400208A0400208E040020F8B5444D69780C0902D000242000F8BD01284BD1022A20D83F4F404E3C603460012A10D05A
:4009C00002290CD13D4B2A781B889A42EBD23C49083352183A605B1801243360E4E70029E1D10022AA562B78002ADCDB354A9B183B60334BF0E7023A93B200291BD0040093
:400A000002290DD12D4A29782D4812880818521A9A4200DD1A002C4992B201F093FB01242A4B1B78D9B2002BBED190222800520001F091FBB8E7264A264912788854234A83
:400A40001070254A1380EAE70028E9D119490B681C1EE5D0184A040012689342E0D2D21A92B2002ADCD0101C082A00D90820C2B217481A4C00788000045982208000265883
:400A80000820801B8126C0B2B600824208D20120A05190209A188000934205D10B60BEE70422A2510200F4E71E7801332650F3E7100700203808002034080020920400209E
:400AC000C40800203C0800201207002030080020320800208E0A0020D60900202C22000010B5034B1B68584301F0A2F810BDC04680040020F7B5040001200F001D000192F3
:400B0000FFF7EEFF4021114E0F43335D29030F435B021F4300230E49CF609D420ED880230C4A9B02116803200B431360FFF7D8FF0722335D013313403355F7BD01989A0016
:400B400080581A1D920088500133E6E78D0A002000000A40C4000A401923244970B54A6D1A40234B102A1BD000221A60214B8B6372B6C0222049214801F0E4FA0123204A4B
:400B800011680B431360BFF34F8F1E4B1E4883421ED300201D4B1E498B4224D3FFF7DAFA1A68012AE2D100201A681A4A126806CA186081F308889047FEE71C6891006458B0
:400BC0005D6801326C5099688A42F6D30C33DEE70022F8E71D689400605101325C68A242F8D30833D8E70022F8E7C04600000340780400206588EDAC0000000000000020B0
:400C0000000010409C220000A8220000A8220000B022000080FF01007047000010B5034B1B78584301F004F810BDC04684040020F0B589B0FFF79CFD8023F74D1B062B635D
:400C40002B6B002B1FDAFFF7DFFBF44B98421AD000F0F7FF0022F24B0400EA50F148F24BF249C35CDBB26B50F1231B01EA50D3239B00C35CEE4ADBB23220AB5000F0D8FF59
:400C8000200000F0E2FFFFF75DFD0C22E24EB36A9343B362B36AB4329343B362FFF7EAFB3022B36A9343B3628023F26A1B061343F362336B002B2FDAFFF7A6FBDD4B984234
:400CC0002AD000F0BEFF0022D54C0500DA4BD5483251C35CD549DBB27350F1231B01F250D9239B00C35CD24ADBB2B350322000F09FFF31003259072605230F00B243134394
:400D000032200B5100F094FF06233A592800B24313433B5100F099FFFFF714FD0C22BE49C1248B6AC54E93438B628B6AB43293438B62FFF71DFDFFF79DFBC021C04BC14A20
:400D400089001A605858C04A304010435850BF48A40018601868BE48862718601859BF00304002431A51BB4AC2201A601A68BA4A80001A60A0221D58D20035402A43C32579
:400D80001A50B64AAD001A601A68B54A09381A605A59FF38324002435A51B24A9E251A601A688022D2051A601E58AF4AED01164035431D508125AD48AD0018601868AC48A0
:400DC00018605859104008435851AA48043518601868A9481860585910405851A748043518601868A6481860B8205E594001164030435851A348842618601868A248B6005B
:400E00001860BC209D598001154005439D519F4D04361D601D689E4D1D609D59154005439D519C4D1D601D689B4D1D608025DE596D0016403543DD51984D07271D601D68A1
:400E4000974D1D608725AD005E59164030435851944804351860186893481860CC205E59800116403043585190480126186018688F481860892080001D582A4011438D4A20
:400E800019501A60092200201B688B4B8B491A61043A5E629862DA62033A9A6392191A639219DA633C321A643A3A5A643B329F64834DDA64FFF76CFC30008249FFF768FC8F
:400EC0002B591B021B0A2B517F4B1B68334203D038007E49FFF7B2FC80232B60FFF7ACFA7B4F0100380000F0E1FEB722794ED200B7505722784900230A708021774A4900E1
:400F00001180774AD1393370118062B6754C76482370FFF7DBF9002801D0042323700823227872491343724A237013689BB28B4200D029E100231360227801331343237099
:400F40006C4C37782368C1215B005B082360802309221B06C90023606358642093431A00012313436350FFF759FE9622624B52001A60624B624A1A60C022D200A3585B006A
:400F80005B08A3509032A3585B005B08A3501823A1580B435B49A35063585B4A1A4090231B021343594A6350A35859495B0C5B040B43A350002F00D116E2DA213822C90064
:400FC0006358012093431A001023134363505149514A63581A40514B13436350FFF780FDC022D200A1584E4B0B43A35000224D4B1A604D4B4D4A1A6001234D4A11680B43A1
:401000008E2113604B4B4C4AFF311A604B4A13685B0A5B0294E0C0460000034000366E01080F000000F0FF0F650300000C0F0000180F0000006CDC027D030000FF0000FFFD
:40104000000001404000004000BF5D0040FF00804100004041FF00804200004042FF00804300004043FF0080FF00FFFF00FF00800100004001FF00800200004002FF00800B
:401080000300004003FF00800400004004FF00800500004005FF00800600004006FF00800700004007FF00800800004008FF00800900004009FF0080FC0001400022000044
:4010C00000E100E0D421000000001040191C0000DC100020980A0020D40900209204002090040020380A002080FF01004C4200007804002000000A40D0000A40D4000A40F2
:401100000A4041010C210000FF0FFCFF142100005C500100082100001EFF79FF210084000A003E00A8000A40BC000A400B410000C4000A40B4000A400F020000E4000A40D1
:401140000B431360002F0CD18027E14BBF01DF67BFF34F8FBFF36F8F0D20DE49FFF76EFB2F60A022DC4BD200A3500832A1580B43A3507C22D949635893431A004023134301
:401180006350012303932FE0247804232000116818401C4200D0D3E6D14C89B2D14BA1420BD1188019888BB2002912D1012313601923CD4A5365FFF707F8CC49CC4C09890D
:4011C000A142EED0CB488142ECD0FA2189001980E8E70024C84A21001470C84A38000092C02200F0BDFD0394C54B03221E600126C44B00211E70C44BC4481A70C44BC54A7B
:401200001A609022520000F0A6FF9123C24CC34A9B00D75820008022002100F09CFFC04B20221B886780A38023003A331A702423FF33E363BB4B2C341A782670BA4B002A04
:4012400000D01A7000211B78B84A0493B84B81201960C1241A668022A40052028000D9661A501A51B34AF42699500122360152429A51B14E049F9951083E9A51AF4E99519A
:40128000083E9A517A00FE273F043A43C427BF001E68DA510822113FFF32FF3FDA510137FF37DA518022120632431A60A44A0126170048373E704B27BC4694446046493F1A
:4012C00007704C20844694446046077017005C3739808E499027116511007F0054310F80984904989165110049310870FE214A3281201170042280001A501A511A59924945
:401300000A401A511A580A401A5042228949FF325A508A4AFA388D499E50FF38FFF78EFA80231B012B60774B1B78002B09D08021754B874A1B7849049B009A5893680B43B7
:4013400093600023902206AE06937360814B724C1B78227063705B074FD580253100AD00E0237D4A81CB81C21000082200F0EAFE2300203306CE06C380239B0063852585AC
:4013800000F05FFC230080227E331A80FF23184000F05BFC01222F21A3791343A3716F4B2F321A806E4B6F4A059313806E4A13806E4A11806E4F3B78002B46D0534D6D4E26
:4013C0006B781B0932D16C4B28781B880638DBB2062800D926E100F0E5FD17002501410025016100E400ED000F226449CB6F93431A000B231343CB67DFE53C4B1D682900B1
:401400002D0AE031ADB2ABE70122AB7813420DD000F017FC0121404B9A798A439A7100227E331A80FF23184000F00FFC0022364B53491B783A70CA54F15C914205D0F254A9
:40144000504A9B009B580122DA662B4B1B78002B00D1E9E001224C4B1A60A9E6012B00D8E0E0AB780524522B1FD1EA78012A1CD10021254B42481B78C154F05C884204D0AC
:40148000F15440499B005B58DA660520FFF7C6FB72B600223C4B1A60FEF796FEAA783B4B502A75D102244F3A1A7000F0CAFB1A4D00222B007E331C702B007F331A70FF2350
:4014C000184000F0C2FB0122AB791343AB71ADE704E100E001020000030601009407000031420000860400200000034080FF010046490000FFFF000058050020E50100005D
:401500000C07002031080020320800201007002038080020BA0800203C08002000F0FF0F90040020D4090020940400208828004000000840480F0000880F0000C80F000084
:40154000D80900209D090000FFFFFEFF390700007C220000380A00204C08002088040020FF0100008A0400208E0400208C04002030080020920A0020D609002004FF0A40F9
:401580008E0A00202C220000780400200907002001211A7805240A4287D00022033C1A7083E7A878FEF7F6FE0230C4B2002C00D13CE77AE70524032B00D876E7AB78462B32
:4015C00000D072E7EB780220012B07D168792B790002C1491843FFF7B7F9033CEB78002B1BD1BE4B07241B78002B00D15DE7BC4B69792A791B88090211438B4200D354E77E
:4016000080239B00994200D34FE78022B2480902520000F02EFB043C47E7002800D144E7072442E7052440E7039B002B00D1C1E6AC4B1C78AC4B1B5DD9B2002B6BD1AB4B1D
:40164000AB4E1D5D06AF002D27D0AD239B00F65880223700D200A74BA74D1740A000164274D129586200511889005E5801365E502958521892009958A04A91424BD9E4009D
:401680001F511C19676046E0802372585B0013430CE0D150012D3ED001250023C0213B70C9009D42F0D17358954A134073500A20FFF7B4FAAD2301229B00F3589B0A134094
:4016C0003B70387863005B198A4AC1B29B000028DFD0D1580131D150D158884B9942D9D9854BA100CD500023E100535052185360844A04211355844AAD001355834A135535
:4017000001227A4B1A55C023DB00F2588A43F250F2581543F550734B1E78734B9B5DDCB2002B00D046E67A4DB7007B59012B13D100F087FAFF237C51184000F086FA714B4F
:401740009C55714B9C55714B9C5533E62A586400A418A4001951DEE77B59402B00D029E600F06FFAFF237C51184000F06EFA694A13685C04640F00D11CE60F210B40012BFF
:4017800009D18023644A5B05136001230D393000FFF7B0F90EE60F2B00D00BE653797F2B26D91079C006C00E0138032800D901E6594A00F0EDFB020D1319584B1360584BDE
:4017C000536000239360574BD36004230F21DEE7554B1360554B53600223F7E7544B136001235360DB18F1E7524B13600123EDE7D188514B994200D0AAE111799788C90667
:40180000FF054E4DC90E4E4A3F0F0491790128680A434C49013C01400A432A60049AA400501EE4B2122800D992E100F0BBFB13001D00370095009101E200F7001601310154
:4018400049016D0175017C01910191019101910191018B01002C00D0F6E02F236C60AB6003340220404227E0002C00D0ECE0E0210822281D00F0FDF9334B34491B785B076C
:4018800002D4334B1968E031280008220C3000F0F0F900236B61AB610724E2E7042C00D0D2E01C4B1B7A532B00D0CDE0294AF233FF33D358AB6000201F222B789343049ACB
:4018C00013432B70831C03D001340230E4B2686023002A007AE7C046C4080020090700208C040020980A00208C0A0020480A002000000A405C05002054050020C409000045
:40190000FFFEFFFF6C0A00208D0A002008070020440A00204C0A002034050020418000FFB40400920000A0F6428000FF0000B4044380B4044480B404B4040000700A002091
:401940000008B4041FE60000380A0020390A002080FF010000F0FF0F042C75D1844B1B7A522B71D172B6834B834D1A68834E1A60834B84491F688023AA59DB001343824870
:40198000AB514B6E814A0078002F24D10F37BB43034302204B66AB59A343AB51AB590343AB518C239B00E9581143E950E9580143E950E9588143E95090239B00E95864205B
:4019C0000A43EA50FFF72AF98023AA591B021343AB51FEF7F9FB0F270130BB43034302204B66AB598343AB51AB591C43AC518E23D8E7042C28D15E4B654A1B7A502B09D1CA
:401A00000221137803208B43033C002B00D053E7117050E70020107001244DE77B1E0A2B12D80B2F0ED0182C0ED1182078431838584F4F4980B208302200C019083100F0DF
:401A400018F9B7E4102CF0D018226B78012493431A00102313436B7003E74F4B1B78DBB2042CF1D1002BEFD1414B1A7A462AEBD19F7A5A7A3F02174338004849FEF764FFB2
:401A8000059B9F42C8D1464A13781C431470C3E77B1E0A2BD8D8182239005143C9B20B2F00D1083A3B4B1039C9B2C918281D00F0E0F8002CC8D105340B2F00D1D1E6EBE64E
:401AC000042CC1D12A4B1A7A462ABDD1304A0E201278033C002A00D1EEE65A7A997A314B09021B88114307388B4200D3E4E680239B00994200D3DFE68022284809025200AF
:401B000000F0B7F82000D7E6042C9DD1184B033C187AFEF73FFCCFE6214B002C94D11B7802342B719DE6082C8ED1114B9868D968802342189B029A4286D200F089F8063CDC
:401B400028718EE6002C00D07EE7EC236C60E6E7074A51680A0C9A4200D02BE4124A0B0A1160E721194010230B4353703EE6C0464C0A00207804002000000A4068080000F7
:401B80005405002000FF0A403CF1FF0F200C200009070020000600200A07002008060020380A00208C040020340500200222044B19680A431A60012219680A431A607047DF
:401BC00010E000E00221044B1A688A431A601A6801398A431A60704710E000E00421044A8000136808408B43184310607047C04610E000E0034A80B2136C1B0C1B040343EA
:401C000013647047000003400122024B5A645B6C7047C0460000034010B5FFF7F5FF024800F030F910BDC046DC100020000000000230800803D00138FDD1C046C046C046A7
:401C40007047EFF3108072B6704780F310887047031E08D0081E06D0180059180023884202D15842C0B27047027801309B18DBB2F5E7002310B5934200D110BDCC5CC45437
:401C80000133F8E770B5084B04001B6C02899BB20D009A4202D06420FEF7C0FF2800FFF7A9FF258170BDC04600000340F7B500230500FF2001331A01AA18D0803F2BF9D1D9
:401CC000FF2300279B00EF54214B224CEF5401232960E26C204E9A43E264204AA263E26C1343E3648023E26A1B061343E362FFF78BFFFFF767FFFA21B7602868890000F0F8
:401D00005BF901380002000A7060E26B92B2E36B9BB29A42FBD0E76B0120BBB20193FFF75DFFFFF743FF02223368934380223360520233681342FCD0E36B01999BB299427F
:401D400000D91343DF1B6F81FFF73CFFF7BDC046FD0300000000034010E000E06588EDACF0B585B0040016001D0000270391FF2A66D0BB4264D003000C330193FFF761FF3E
:401D8000FB239B00E118FF223E2302904889DBB2FF2800D11A004889B04246D1FF218900625C013AD2B262543249625C013AD2B262541A00019B12019A180A9B1581536020
:401DC000039B5681D36063892A4E5D432A4B1560E35C002B1DD1294DEB6BA05D99B2002835D0A5880B00A8B28D422CD211681B1A9BB25B1813601168E388994209D213685F
:401E000020009BB2E380A188E388C91889B2FFF739FFFF229200A35C01270133DBB2A354A35D0133DBB2A35507E0013B5BB21039581CABD10027FF2ABCD10298FFF705FFCF
:401E4000380005B0F0BD802149025B18CEE7A18013680B4A934200D913009BB25918E380200089B2FFF70EFF0123EA6C1343EB64CFE7C046FD030000FE0300000000034064
:401E8000C0FF00000122F0B504003D4B85B0C25403933C4FFB6BA08899B21B0482B21B0C884263D226009B1A9BB20193FF230C3635009B00E318A18002936B8998B2FF2B48
:401EC0001ED0019B2A6805339A4253D92B68019A9B1A2B602B68002B12D1FF22FF336B819200A35C013BDBB2A354274AA35C013BDBB2A3546B68002B02D06B68E9689847E4
:401F0000029B10359D42D8D11F4D2049635D002B17D07389FF2B03D033688B4200D23168029B10369E42F4D1A088FB6B82B29EB21B041B0CB0421FD29B1A9BB205338B42FA
:401F4000A7D889B2E180A3882000C91889B2FFF799FE0023039AA354635D002B04D101220849CB6C9343CB6405B0F0BD802040021B1897E70023ACE7802040021B18DBE7A9
:401F8000FE03000000000340FD030000C0FF000002B4714649084900095C49008E4402BC7047C04603B47146490840004900095A49008E4403BC7047002243088B4274D35F
:401FC00003098B425FD3030A8B4244D3030B8B4228D3030C8B420DD3FF22090212BA030C8B4202D31212090265D0030B8B4219D300E0090AC30B8B4201D3CB03C01A5241E2
:40200000830B8B4201D38B03C01A5241430B8B4201D34B03C01A5241030B8B4201D30B03C01A5241C30A8B4201D3CB02C01A5241830A8B4201D38B02C01A5241430A8B42B8
:4020400001D34B02C01A5241030A8B4201D30B02C01A5241CDD2C3098B4201D3CB01C01A524183098B4201D38B01C01A524143098B4201D34B01C01A524103098B4201D3EC
:402080000B01C01A5241C3088B4201D3CB00C01A524183088B4201D38B00C01A524143088B4201D34B00C01A5241411A00D20146524110467047FFE701B5002000F006F87D
:4020C00002BDC0460029F7D076E770477047C046084B10B50400002B02D0002100E000BF054B1868836A002B00D09847200000F03BF8C046000000008C22000070B50026A8
:402100000C4D0D4C641BA410A64209D1002600F02DF80A4D0A4C641BA410A64205D170BDB300EB5898470136EEE7B300EB5898470136F2E7F8040020F8040020F8040020D8
:40214000FC040020002310B59A4200D110BDCC5CC4540133F8E703008218934200D1704719700133F9E70000FEE7C046F8B5C046F8BC08BC9E467047F8B5C046F8BC08BC17
:402180009E46704701005200FF005200040052000400520005005200FF005200000000000800500009005000FF005200FF005200FF005200FF005200FF005200FF005200F5
:4021C000FF00520021005200FF005200210052002100520001000000040000000F0000000000000000000000000000000000000000000000000000000000000000000000D0
:4022000001000000040000000F0000000000000000000000000000000000000000000000000000000000000000000000000005400000064000000740000008400000000070
:402240006FC75E10DE8EBD20B149E330BC1D7B41D3DA25516293C6610D549871783BF68217FCA892A6B54BA2C97215B2C4268DC3ABE1D3D31AA830E3756F6EF30002044098
:402280000001044000000440000304409804002000000000B4DEFF7F01000000B02200007C0400202100000000050020F70300000000E02EC05D0000180032000002000256
:4022C00000020002130000010800000000000000000000000000000000000000000000000000000000000000000000000000000000000000000000000000000000000000BE
:402300000000000000000000000000000000000000000000000000000000000000000000000000000000000000000000290100000101000000000000000000000000000071
:40234000000000000000000000000000000000000000000000000000000000000000000000000000000000000000000000000000000000000000000000000000000000005D
:40238000000000000000000000000000000000000000000000000000000000000000000000000000000000000000000000000000000000000000000000000000000000001D
:4023C00000000000000000000000000000000000000000000000000000000000000000000000000000000000000000000000000000000000000000000000000000000000DD
:40240000000000000000000000000000000000000000000000000000000000000000000000000000000000000000000000000000000000000000000000000000000000009C
:40300000464901120006000894B95FC800000000000000009C044000D001440000000000000000004353445000010D00B40401FA496E66696E656F6E000000000000000056
:403040000000000000000001B40401FA000000000000000300000000000000000000000000000000B40401FA000000000000010000000000000012121E000000000002148D
:40308000000000000007010000000001000000000000040F000000000000000000000000000000000000000000000000000000002C910100C8D00200C8B004009640060044
:4030C0000000000000000000000000002C01C800C8000A000000000000000000000010313C3C3C000000000000000000000000000000000000000000000000000000000014
:4031000000000000000000000000000000000000000000000000000001010000B404000000003F0000000000000000001400000041A000FFB404401800000000000001FA97
:40314000000014002C01000040010000400100000000000000000000000000000000000000000000000000000000000000000000000000000102140A020000000102140A48
:40318000020000000000000000000000000000000000000000000000000000000000000000000000000000000000000000000000000000000000000000000000000000000D
:4031C000000000000000000000000000000000002400F4001801140040011400540108005C010800640108006C0108007C01080084010C009001080098010800A00104009C
:40320000A4011000B401040000000000B801180000000000670013001B000000000000000100000001000100000000000000000000000000D007A406D85900000000000005
:403240000000000000FF000003030000000000000000000000000000000000000000000000000000640250005000000000000000000104505050000007070707030F4432AA
:40328000003C000014001400000007070707304E120000000000000000000000000000000000000000000000000000000000000000000000070707070000000000000000E2
:4032C00000000000000004040404000000000000010046051E02284B0000000000000000000000004300580300000000000000000000000000000000000000000000000041
:40330000010000009C534936BA6B793FE17A0D434501E8030303230000000000BD3706363A237A3F9AF9A2434501E80303014F01000000009C5349366666763FEC11CD43FD
:40334000EE02D0070301C102EE02D0070000000000000000000000000000000000000000000000000000000000000000000000000000F82AD039C8000000B80B0000983A70
:40338000204E204E00001E001E000000000000000000000000000000640000006022F401030000008813E231F401D007000000000000000000000000000000000704000092
:4033C000000000000000000032000200000001000100B80B204E1932C800000000000000000000000000000000000000000000000000000000000000000000000000000053
:4034000000000000000000000000000000000000000000000000000000000000000000000000000000000000000058023C00000000000000000000000000000094023C0024
:4034400000000000000000000000000000000000D002A000000000000000000000000000010000000000000000000000000000000000000000000000A00F0A00C800000058
:403480001450000A7D69463C0000000000000000000000000000000000000000140244007003F000000000000000000000000000600418007804240000000000000000005D
:4034C00000000000000000000000000000000000000000000000000000000000000000000000000000000000000000000000000000000000000000000000000000000000CC
:40350000000000000000000000000000000000000000000000000000000000000000000000000000000000000000000000000000000000000000000000000000000000008B
:40354000000000000000000000000000000000000000000000000000000000000000000000000000000000000000000000000000000000000000000000000000000000004B
:40358000000000000000000000000000000000000000000000000000000000000000000000000000000000000000000000000000000000000000000000000000000000000B
:4035C00000000000000000000000000000000000000000000000000000000000000000000000000000000000000000000000000000000000000000000000000000000000CB
:40360000000000000000000000000000000000000000000000000000000000000000000000000000000000000000000000000000000000000000000000000000000000008A
:40364000000000000000000000000000000000000000000000000000000000000000000000000000000000000000000000000000000000000000000000000000000000004A
:40368000000000000000000000000000000000000000000000000000000000000000000000000000000000000000000000000000000000000000000000000000000000000A
:4036C00000000000000000000000000000000000000000000000000000000000000000000000000000000000000000000000000000000000000000000000000000000000CA
:403700000000000000000000000000000000000000000000000000000000000000000000000000000000000000000000000000000000000000000000000000000000000089
:403740000000000000000000000000000000000000000000000000000000000000000000000000000000000000000000000000000000000000000000000000000000000049
:403780000000000000000000000000000000000000000000000000000000000000000000000000000000000000000000000000000000000000000000000000000000000009
:4037C00000000000000000000000000000000000000000000000000000000000000000000000000000000000000000000000000000000000000000000000000000000000C9
:4038000000400020B14D0000393A0000DD3D000000000000000000000000000000000000000000000000000000000000393A00000000000000000000393A0000393A000044
:40384000393A0000393A0000393A0000393A0000393A0000393A0000393A0000393A0000393A0000393A0000393A0000393A0000393A0000393A0000393A0000393A000018
:40388000393A0000393A0000393A0000393A00000000000000000000000000000000000000000000000000000000000000000000000000000000000000000000000000003C
:4038C0000000000000000000000000000000000000000000000000000000000000000000DD00011069770000C1118031000000000000000000000000000000000000000077
:4039000010B5064C2378002B07D1054B002B02D0044800E000BF0123237010BD000B00200000000020DC0100044B10B5002B03D00349044800E000BF10BDC04600000000D2
:40394000040B002020DC0100402292029A1A92467047C046174B002B00D1134B9D46FFF7F3FF00218B460F461348144A121A18F08EF90E4B002B00D098470D4B002B00D014
:4039800098470020002104000D000D48002802D00C4800E000BF18F04DF92000290005F0A7FF18F031F9C0460000080000000000F959000000400020000B0020FC350020F4
:4039C0000000000000000000704701238B40002A01D1436470470364FCE70000034A10B55368002B01D09068984710BD2C120020BFF34F8F034B044ADA60BFF34F8FC046B6
:403A0000FDE7C04600ED00E00400FA050122024B40331A707047C046A02500200322024B3D331A707047C046A0250020014B8000C058704734CE0100FEE701207047000054
:403A400000487047101400200048704760CD01000121094B027810B599541A78002A03D05B78002B00D072B6044A0549136809680B431360FFF7BCFF941100207804002054
:403A8000981100200122024B44331A707047C046A02500200020704770470020704770479E230122DB00CA547047000010B50248024BC358984710BD94180020480800003B
:403AC00010B50248024BC358984710BD941800204C08000010B50248024BC358984710BD9418002004080000E42310B50248DB00C358984710BDC0469418002010B50248EF
:403B0000024BC358984710BD9418002024070000E52310B50248DB00C358984710BDC04694180020A92305481B0110B5C35898470322034B5A635B6B10BDC0469418002066
:403B4000FC000940014BC05A7047C046D20A00000822054B002800D00422002901D15A6470471A64FCE7C046000104400B4B70B5DA6A102413681B0500D4083C822590264A
:403B8000AD00B6000178002900D170BD5359DB05DB0DA342FAD091510130F3E7A02500200822034B002901D01A6470475A64FCE700030440002310B5027808490848120168
:403BC00089188218D05CCC5C844204D30133102BF8D1002010BD0120FCE7C046B00E0020900E00200F22030013409B009A40994010B50009034C800000590468944321435C
:403C0000016010BD0CCC0100F0B505000226AC7A6F7A64003440013E37403C43970009013C430C4351424A410827524213403340BC43134E240626400078DB063343114A5F
:403C4000114E800084588059A4058005860D3000A10D240B234318431B0E1F4204D1B14202D9800A800208430123D535FF35AA7C93429B41054A5B42DB0510401843F0BD40
:403C8000FFFFFFF78C11002084110020FFFF7FFFF3235B00C35C0A0070B50421012B00D90C310378034CDB01E518083329731919904770BDD40E0020F0B5160018224243D0
:403CC000204B04009A18938A92689BB2002A02D110003270F0BD87001B488C463F58C22080003858C005C00D814200D9844618206043144D61462818808989B284463170D4
:403D00005E18B6B20020B445E4D3D21815001800B0420CD30022B34200D80A1C182044439B18084A9BB21519AB821738D2E7D0229200BA5801302A702A000132150080B25F
:403D4000E6E7C0461011002024CD010030B5002915D001230F250B4C41185B420278013053401A092B409B001B595A4013092A409200125953408842F0D1D84330BD012363
:403D80005B42FAE7A4CD0100802310B5062204009B0298421DD2437802780F491B02134306228B4215D1C1798279090211430C390C30FFF7CBFF617A237AA27A090219436E
:403DC000E37A120411431B0600220B43984200D00632100010BDC04646490000064B10B51B68002B02D0012100209847034B044A5A60FFF7FDFDC04674110020003C002013
:403E00000C3003C0044B1B785B0702D4034B18687047C0208001FBE77011002080FF01000020074B1A6B824208DA064A98581C238000034004485843044BC0187047C046D6
:403E400000000340080F000040420F0000366E01030003200B4A916A014000208B4210D0834204D1116B814205DB074809E0074909680029F9D00321906A88431843906254
:403E8000002070470000034003004A00840E002008290AD801208B2388405B00184043425841034B4042184070470148FCE7C046FF00420013B5054B77220093F2235B0068
:403EC000C458E33B0100FF3BA04713BD818B0000E2237C2230B54568044CFF332959C35C91439B000B432B5130BDC0469407000094239B00C3581A8BD2189088C0187047C8
:403F0000F8B50478154EE401331943331B7805000F000122002B0FD1B623DB00C058FFF7E7FF0322837A13400932022B04D0032B0AD05A1E9341DA1C210033190831280008
:403F400071181A73B847F8BD2B00D533FF339B7C0422012BF0D90C32EEE7C046D40E0020F7B50700D5370191FF3704787B7B0500154EE401002B0FD0331955331B780C22E0
:403F8000002B00D1093A21003319083128001A737118019B9847F7BDB623DB00C058FFF7A7FF837A0C229B069B0F022BEBD0032B03D05A1E9341DA1CE5E7BB7C0422012B51
:403FC000E1D90C32DFE7C046D40E00204168044A8B588858DB0380055B0E800DC01A70471821000070B540680C4D0D4B42590D4C1A4003595B0C5B04002903DB194342513A
:40400000015170BDFE26494209B2890276023140194380239B001A43F1E7C0460C210000FFFDFFFF18210000F7B56A2854D1F1235B00CA5C012A50D1F02464000B5D48681A
:40404000012B0DD0002B3CD05B00DBB2012B3AD80B5503230C5DA4002343F224E4000351464BCB5C002B15D0E224FF340B5D042B10D0002B03D05B00DAB2042A25D80A55AC
:404080007C223F4D0B5D46599B0096433343793A13434351F0235B00C85C0B00E133FF335B78384A1B020343934211D0364B6A220093F2235B00CC58E43B0800FF3BA0477B
:4040C0000AE01300C4E70A55C3E704230B55D7E7F12300225B00CA54F7BDE424FF340D5D012DF9D1F02040000A5C4B68012A0DD052083ED00A54F226F0227C20F600520085
:404100009D598A5C854392002A439A511B480A5C002A10D0E225FF354A5D012A0BD0520829D07C27164E4A559A59BA4317004A5D92003A439A51F02252008E5C0A00022516
:40414000E132FF325278FF3512023243AA42ADD1F22603250227F6009A59AA433A439A51074E9A59AA4317439F5100230B550B54B2E70D54BFE70122D3E7C0462F0200004E
:40418000940700000104000029400000B62310B5DB00C1586A20FFF747FF10BDF7B545682B00A0331E68A2235B00C45C002C01D10020FEBD00290FD118220823164200D144
:4041C000190046260700CB180193FF36FC37019B994204DB0120ECE710230021F1E7825D7B6A9200D3580A1D92005351825D0132D2B28255825D9442DAD90131C9B2E6E7B1
:40420000A623F0B54C24A5265B00C15C4568CAB2FF34083176008A4207DBA6225200835C59424B41DB008354F0BD075D835D9F42FAD21700035D1837BF0006337F599B0003
:40424000C3185F60035D01320133DBB20355D2B2E1E70000C020F0B5C125684B684A80001A601958674A684C1140214319506749AD00196019686649C52619605959B6001C
:4042800011400C435C51C2246249A400196019686149083519601959114019515F49196019685F491960BC215C59890114400C435C515C4C04351C601C685B4C1C605C590D
:4042C000144004435C51594C1C601C68584C1C6080249D59E400154025439D51554D1D601D68554D1D60BA251E592D02164035431D51F82580261F59AF433E431E514F4C4C
:404300001C601C684E4C1C604E4C1E5916404E4A32431A511A59AA431A514C4A80241A601A6880229E25D2051A60A4001E59484AED011640354381261D51464DB6001D608D
:404340001D68454D1D609D5915402843822598514248AD00186018684148083618605859104058513F48186018683F481860B8209D59400115402843842598513B48AD003C
:40438000186018683A481860585910400843585138480435186018683748186058591040084358513548043518601868344818605859104058513348043518601868324807
:4043C0001860585910400143882059512F498000196019682E491960195811400C432D491C50196019682C490430196019580A401A502A4A1A601B68F0BDC0460000014033
:4044000040000040FF0000FF00BF5D0040FF00804100004041FF00804200004042FF00804300004043FF00804400004044FF00804500004045FF00808000004080FF00800B
:404440008100004004040000007FBB0081FF0080FF00FFFF00FF00800100004001FF00800200004002FF00800300004003FF00800400004004FF00800500004005FF0080E4
:404480000600004006FF00800700004007FF00800800004008FF00800900004009FF008094239B00C058838A1B189B881B18BA331B881818704710B5FFF7F2FF431DDA7FE8
:4044C0000523032A03D037300078584310BD407FFBE70000F8B50F00060044688568FFF7DFFF042F39D12900FF263F23B4310A68B24313430B603649364A63581A408023CC
:404500001B0413436350344B3449E2580A40E250427E012A1BD1E2583149BC351140802252030A43E2502B682E4AB3432B608023A1589B050B43A3502B4A2C49A3580B4025
:404540000121A3502A4AA3588B43A350F8BDE022E15852030A43E250EEE7032FF6D180222149120263581343635001232049FC22675852003B432F006350FF21B4373B68B6
:40458000B2588B4313433B60114F124AE3591340E351114B114AE7581740802212023A43E250E2580E4F1740802252033A43E250437E012BCAD1FA22BC352B685200B258E9
:4045C0008B431343074A2B60A3580A490B40BCE73C210000FFFF01FE1C220000FF3FFEFFFFFFE3FF4C21000030210000FF7FFFFF20220000FFFFFFDF10B505220121002046
:4046000010F04CFE08220021012010F047FE04220121032010F042FE03220121042010F03DFE02220121052010F038FE09220021062010F033FE01220221072010F02EFE51
:4046400001220021082010F029FE00220920110010F024FE052200210A2010F01FFE022200210D2010F01AFE032200210B2010F015FE042200210E2010F010FE00220121C5
:404680000F2010F00BFE06220021102010F006FE07220021112010F001FE01221220110010F0FCFD01220021132010F0F7FD00221420110010F0F2FD05220021152010F02E
:4046C000EDFD03220021162010F0E8FD04220021182010F0E3FD00220121192010F0DEFD062200211A2010F0D9FD072200211B2010F0D4FD01221C20110010F0CFFD10BD00
:4047000010B5254C00212000244A10F0D9FD20000121234A10F0D4FD20000221214A10F0CFFD20000321204A10F0CAFD20001F4C04211F4A10F0C4FD200002211D4A10F0CB
:40474000BFFD200003211C4A10F0BAFD200004211A4A10F0B5FD2000194C0621194A10F0AFFD20000021184A10F0AAFD2000174C0121174A10F0A4FD20000021154A10F075
:404780009FFD20000121144A10F09AFD03212000124A10F095FD10BD00000440F4C9010078CA010048CC01001CCC010000010440F8CC010074CC0100A0CC010034CD01002A
:4047C00000020440CCCC01004CCA01000003044020CA0100E0CB0100B4CB0100F0CA010010B511F0EEF9044B044A9A62FF2230331A7011F0EAF910BDA0250020200320037A
:4048000010B511F0DEF911F0E0F910BDF8B5C0270E001500040011F0D4F9164BFF00DA59154976020A40AA211643DE51062689005A58920A92025A505A58B2431600042281
:4048400032435A5010225E5832435A500B4A0C4EA158962292008E500A4AAE21A550202289005A5008315C5822435A5011F0ADF9F8BDC04600000B40FFF1FFFF040D00000D
:40488000D53A000004080000F8B5C0270E001500040011F096F9164BFF00DA59154976020A40AA211643DE51062689005A58920A92025A505A58B2431600042232435A5049
:4048C00010225E5832435A500B4A0C4EA158962292008E50E422AE21D200A550202289005A5008315C5822435A5011F06EF9F8BD00000B40FFF1FFFF040D0000E93A00004A
:4049000070B5B025040011F05CF92021084BAD005A598A435A51AE2292009950054B0021E25896239B00D15011F04FF970BDC04600000B40040D0000F8B5150004000E00A0
:4049400011F03FF9C022E027154BD20099587601B94331439950AA2189005A58114E32405A505A58104E16408022120132435A5080225E58D20132435A500C4A0C4EA15874
:40498000972292008E500B4AAE21A550402289005A5008315C5822435A5011F016F9F8BD00000B40FF03F0FFFFE7FFFF040D0000FD3A00002407000070B5B025040011F0CD
:4049C00000F94021084BAD005A598A435A51AE2292009950054B0021E25897239B00D15011F0F3F870BDC04600000B40040D000070B5040011F0E5F88D2181250A4B090191
:404A00005A58AA435A500421084D5A598A435A51074A9950074B0021E25895239B00D15011F0D3F870BDC04600000B40442000003C200000040D0000F7B511F0C2F8042483
:404A4000DC26104D104A2B68019013402B6010230E4F30003B6411F0ABF81023013C30007B64E4B211F0A4F8002CF0D12A68064B01981A4080231B0313432B6011F0A5F8C3
:404A8000F7BDC04600000240FFFFF0FF0000044010B511F096F80221074A13688B4313601022064B06495A64064A13680B40136011F08BF810BDC046000009400000044048
:404AC000FFFFF0FF0000024010B511F07AF89B23034A9B00D45C11F078F8200010BDC046F429002010B511F06CF8064B064A9C5C002C02D0613A9C5CE4B211F066F820006F
:404B000010BDC046F42900206D02000070B54468050011F056F8FA230122DB00E1589143E1508021E65809063143E150E02189006358114E33406350703163589343635036
:404B4000FA2304219B00E2500C4AA3588B43A350C522D200A3587C318B43A350FF237832A1581B040B43A3508E2300229B00EA5011F02BF870BDC04608F8FFFFCC080000FC
:404B80000F4B13B51A6801321A601B68012B0BD90C4B1B68002B02D00021080098470A4B0A4A5A60FEF724FFB720094B094C0093C000C2220021084B205814F0E5FE13BD5D
:404BC0008011002074110020003C00200C3003C0814B00003C120020EE02000013B5E0246400045904980090B720C000205814F0CBFE16BD9E23F7B5DB00C25C0400002ADE
:404C00004ED000223E4E3F4FC2548253C05D3E4D3E4B0A2800D970E09F21C90015F0EAFB060D416D450B51606D4E0B006255384AA25C002A1AD1E25418E0625C012A0BD06A
:404C40000122E25462533349625C092A0BD801326254C822A25309E0E15C5140E154615D4A406255EFE70022E2546253E15C636800205B6E9847636801205B6E615D98471E
:404C80009F23E25DDB00E254A35B002B08D0224A22480092B22221002058920014F074FEF7BD012262550022C5E71D4AA25C022A03D11C4AA25C002AD8D100226255012210
:404CC000B9E7625C062A06D00022E25401326253C8225200BEE70122615D4A406255F7E7615C0122072904D0E25400226253FA22B0E7E15C4A40E254F9E762559BE7C0466F
:404D0000F4040000F7040000F2040000F10400000F070000F3040000A13A0000080D0000FC070000EF07000010B50448044A002901D00021034A0AF087FD10BD94180020C1
:404D4000ACBF0100D2BF0100E0235B00C258B72310B5DB00D05814F0EFFE10BD10B5002818D10F4C032122000E4811F04FFA0C2300280DD12200032111F048FA002802D08E
:404D80000122094B5A700022084B1A6002235B42180010BD0021054B18600800FEF758FE513A00003C1200209411002098110020194B1A4A70B59A6372B6C02218491948A3
:404DC00016F05CFF0123184A11680B431360BFF34F8F164B1648834211D30020154B16498B4217D3FEF7B6FD1C68910064585D6801326C5099688A42F6D30C33EBE700220E
:404E0000F8E71D689400605101325C68A242F8D30833E5E70022F8E7000003406588EDAC0038000000000020000010402CDC010038DC010038DC010040DC010010B502484B
:404E40000AF076F910BDC046F429002010B502480AF06EF910BDC046782C0020E0235B00C258B72310B5DB00D05814F02CFE10BD10B5024810F002FB10BDC046782C0020FA
:404E800037B50438384C062805D815F0B3FA15205636412B6100354A0121606B0AF0D4FC230001223D331A701323606B3121C37543681B68984737BD2D4A0121606B0AF09B
:404EC000C3FC230001223D331A701423EDE7294A0121606B0AF0B8FC230001223D331A701523E2E7244A0121606B0AF0ADFC230002223D331A701623D7E7204A0021606BCD
:404F00000AF0A2FC230005223D331A701923CCE7A06BFFF7ADFF0121050019480FF046FB00902B00174A0021606B0AF08DFC230005223D331A701A23B7E7134A0021606B3E
:404F40000AF082FC230001223D331A701B23ACE70E4A0021606B0AF077FC230001223D331A701C23A1E7C046A0250020FDBF010011C0010025C0010039C0010048C001008D
:404F8000F42900205FC001009DC00100B8C0010010B504480FF03CFD0320FFF771FF012010BDC046F429002010B504480FF068FD0420FFF765FF012010BDC046F429002096
:404FC00010B504480AF088FB0520FFF759FF012010BDC046F429002010B50620FFF750FF10BD10B50720FFF74BFF10BD10B50820FFF746FF10BD000070B505000C000C2929
:4050000010D0224E0B0030000421214A0AF01CFC162C1ED007D82300F7220A3B13422DD0032C2BD070BD242C2CD03B2CFAD12A78184BD2019B189C8E012123003000164A02
:405040000AF002FC154B9C4218D9154B1C855C8510E02B00A2331C88124A2300012130000AF0F2FBB2220E4BD2001C855C85AA5C012A03D10222FF321A80D3E70022084B37
:405080001A70CFE70A20FFF7FBFECBE794180020CAC00100D40E0020EDC0010088130000A0250020DBC0010000223021100010B5FFF7A2FF034A044B11680B431360FEF718
:4050C00097FCC046780400204C42000010B50800110014F06DFB0400044810F0CFF90123844200DB0023D8B210BDC046782C0020F0B503788FB007930B8907009B059B0DA6
:405100000993002301910D920A93089304933B007C331B78049A934200D9E7E10A9B002B25D13B00FC33DA69079912038C00AA49920D6250FA219B8BA84D9B05980D6051FB
:405140004900504314F01EFBA54B62591851099B934200D263513B00EC331A88A14B38001A51012200231100FEF74EFD0C90079B9D4A0C99DB01D318996039783800C901C4
:4051800008310D9B891898470FB0F0BD049C3B784434A40003933C19E67AB3090593049B5B00FB180B93EC331888029B80059A1C019B92009918CB78860D9B09012B00D17C
:4051C00083E0022B00D111E1002B43D1019B1421D5582D03AD0D280014F0D4FA2B1A0693059B2818012B42D0022B28D0002B31D1A3681B039B0DAB422CD1238931009B05B5
:405200009B0D9E4200D21900029A019802329200125A9205920D91421CD8039A6F4992005350FA21039B49009C006B4BE5506B4BE058684314F0A6FA694B185119E1A36825
:40524000069A1B039B0D9A4204D363899B049B0D9842D2D9029B0133DBB20293019B029A5B78934292D8049B0133DBB24EE7A368069A1B039B0D9A42ECD363899B049B0D4C
:405280009842E7D8FA2520896D008005800D1100684314F077FA040028000699704314F071FA06000200A04200D22200029B019902339B005B5A9B059B0D9A42CAD8039BF2
:4052C000464A9B00069D9C50ABE7019B4D88D358059AAD041B03AD0D9B0D012A5AD0022AB8D1A2681203920D9A42B3D863899B049B0DAB42AED3FA21208949008005800D07
:40530000684314F03FFAFA21040030004900684314F038FA06000200A04200D22200029B019902339B005B5A9B059B0D9A4291D8039B2A4A9B009C50039B9C00264BE5506C
:40534000284BE650254BE258254BE250079B244A9B009C58089A944200D27BE73A001021FC32D27F0A4205D01B4A08949B58642B00D16FE70B9B029AEC331B88511CDB0BE1
:4053800000223800C9B2FEF73FFC01230C9008940A935FE7A2681203920D9A4200D959E763899B049B0DAB4200D253E7238931009B059B0D9E4200D21900029A0198023271
:4053C0009200125A9205920D914200D942E7039A024992005350AFE7DC0F00208C110020D40F002084110020D40E00204B889B049B0D0693019BD558059B2D03AD0D012B3D
:405400003AD0022B00D025E7A3681B039B0DAB4200D91FE76389069A9B049B0D934200D218E7208932008005800D864200D20200029B019902339B005B5A9B059B0D9A42DA
:4054400000D907E7FA216843490014F09BF9039B27499A00274B9850049B44339B00FB181B899B059B0D5350039B069A9C00224BE250224BE65069E7A3681B039B0DAB423F
:4054800000D9E7E66389069A9B049B0D934200D2E0E6FA2320895B008005800D2900584314F070F90400FA2040007043290014F069F906000200A04200D22200029B0199ED
:4054C00002339B005B5A9B059B0D9A4200D9C1E6039B08499A00049B44339B00FB181B899B059B0D5350024BD450BDE70023B4E68C110020D40F0020DC0F00208411002055
:4055000010B5084903200FF0A3FC8022064B12019A60082219680A431A60802212059A6010BDC046A4CA010000000940F7B50F4B4F68C85A0E4E013080B2C852C0B20C00AE
:40554000BD590AF0E7FF0B4B013800051D400A4B0543BD510093F2235B00E558E43B772221002000FF3BA847F7BDC0466E02000010220000FFFF0FF82D55000070B5802689
:40558000154D0400154900200FF062FC36022B1DDE67BFF34F8FBFF36F8F0F2010490FF039FEC321C02289006B5812061B021B0A13436B502E600B4A01231100FC31CB63F7
:4055C000A821090162500021074AA150074AA3500F22074BE25270BD00E100E068CB0100253B000000000940840A0000880A00008C0A0000AD2210B5054B1201995A054A0E
:4056000005489952054914F05EFA0AF09DFF10BD94180020D20A0000F0250020D1020000037810B5002B04D1B623DB00C05809F0AFFF10BD10B50378042904D1054AD15C37
:4056400010F02FFD10BD0329FCD195300178014AD154F7E7700E0020037810B5002B04D1B623DB00C05809F0D9FF10BD73B50D000678040010F004FD1C4A3301D218515D7A
:405680001B48FF2904D0C618725D0132D2B27255C3185B5D01318B4212D20025200010F0E6FC2B002A0005212000009510F022FDA84204D02A000421200010F0A7FD73BD73
:4056C0002300D533FF339A7A002A02D01B7E002B08D12278074BD2019B180222423319780A431A70200010F0B9FCE8E7B00E0020900E0020D40E002037B5C8218900040089
:4057000005780FF017F8002809D1B623DB00E058002801D009F01AFFFA235B0008E00822084BED015B19423319780A431A706423B720054AC000009221005022205814F0BB
:4057400023F937BDD40E002065CB00000B7813B50800002B01D0124BC8189B239B00C35C002B03D00F4BC35C002B0DD09E23DB00C3181B78002B04D00B4BC3181B78002B6C
:4057800002D009F0CDFF13BD084B76220093F2235B00C458B33B0100FF3BA047F3E7C0467CFDFFFF6D020000F10400004D57000030B50F24250089008D4022408A40054BFA
:4057C000C018054B000AC01800020368AB431343036030BD0000FCBF00024000072370B503251E004D431340AE40AB408468D208B4432343836001231A408B408A4084694A
:405800009C432243826170BDF8B50600244B254F0D0014002449FA580A40FA50234AD0580840D050701E052827D814F0E3FD030B12171C21FA580A40E021C9001143F950F8
:4058400006221CE0D0580840E021C9000143D150F6E7FA580A4080214900EFE7D058084080214900F2E7FA580A40D0210901E5E7D0580840D0210901E8E7321EE0D121003A
:405880002800FFF795FF092221002800FFF7A6FF074B1A7F002A02D15E771D625C62F8BDBC08000000000A40FFF0FFFF00000B40A025002070B50D0004A904000E7801687B
:4058C0000120A840AB4081431943200021602900FFF784FF320029002000FFF769FF70BD13B510F06EF90823040000930622002304210748FFF7DEFF0222064B20001968B2
:405900000A431A60802292049A6010F05EF913BD0000044000000940054B10B51B680021DA68986890470022024B1A6010BDC046D0110020880E0020054B10B51B680121BB
:40594000DA68986890470022024B1A6010BDC046D0110020880E002037B5416082601800FA239B00984200D21800FA21890014F05FFD0E4A83B25078147891780002044361
:40598000D078090421430006547901431079957924020443D0792D04054A2C43000600922043044A13F0F0FF37BDC046720E0020DD390000CE020000E4230B4A5B00D15840
:4059C0000A4A10B513688B4208D81368CB1A08480468E31803601160006810BD054B1068CB181B1AF3E7C04600000940F02900208C0E0020FFFF000070470000014B1878B9
:405A00007047C046E4040020838A1B18002901D19B8802E0012902D11B8918187047022901D19B89F9E70329F2D11B8AF5E70000F7B50B000E00344A0421040009F004FF00
:405A4000032E1ED83000314D14F0D4FC0226523C2F4F21787B59A0680193FFF7D5FF0723019A4C309A43130002782A491343062000227B51FFF7C8FE274A0321200009F084
:405A8000E3FE03212000254A09F0DEFE0022244BE654244BE254F7BD1D4F21787B59A0680193FFF7B1FF0723019A4D309A431300027818491343062000227B51FFF7A4FE2F
:405AC000194ADAE7194F21787B59A0680193FFF79BFF0723019A4E309A43130002780D491343052000227B51FFF78EFE104AC4E707230E4A052051590B43535105490022DB
:405B0000FFF782FE0B4AB8E700C10100BC08000000000B400000044011C101004AD00100260800002B08000025C1010000000A4039C101004CC1010070B504001048FEF7E7
:405B4000AFFC21780500A0684A34FFF75DFF2378012B12D1048A6B7E012B0CD1094DA86BFFF786F92885F538FF38031C80B2A04200D9231C9CB2200070BDC489EBE7C046E0
:405B8000F4290020A02500209123024A9B00D3580360704700F0FF0F034B1B7803405A1E9341D8B27047C0460C11002030B5064D064C002804D001238B4022702B7030BD62
:405BC00028702070FBE7C0460C1100200E110020074B1954002909D1064B1A5C002A05D001221954044B8000C358DA667047C046D4110020D811002024CD0100134B82003A
:405C0000D35830B51A681249520052081A601822424310481025801802220271002282825A50F82001210C4C4942000119501859A8431851F4200001195080301950DA66E3
:405C40008022196812060A431A6030BD24CD0100880F000010110020480F00006F3810B5C4B22000FFF7CAFF18206043034C00222418217923690320984710BD1011002095
:405C8000084A81008A580300526E0020D20708D418305843044B1B181879023843425841C0B2704724CD010010110020F0B585B002930AAB1B780C0000930BAB19780EAB97
:405CC0001B8801920393032C71D83E4BA200D35800223D481A608025186681206D028000DA661D500130FF301D50F4260120374F40423601DA519851354E9A51083E985191
:405D0000344E9A51FC22009E1201985076000A043243C426B60018689A51FE2900D0284308228025FF32AD005A510135FF355A51294A019D02431A601822624327481554E5
:405D4000821802989170D07002201071002090820D9804219060039890810C981061009850708122C12092008000995019501C491D588C460D401D506046995801409950F7
:405D80004222FF32DA511349413AFF3A5A50022C12D0032C13D094420BD0082011490FF039FA01230834E4B2A3400F4A136005B0F0BD09200D49F2E70A200D49EFE70B2002
:405DC0000C49ECE724CD010088280040480F0000880F0000C80F00000001008010110020FFFFFEFFB589000000E100E0BF890000C9890000D389000070B50F4C80000459C5
:405E00008220800025580820401B8125C0B2AD00904208D90120605190258818AD00814205D11A7070BD042262510200F4E70E7801316651F3E7C04624CD010070B54379CC
:405E400002791B0281791A43C37909041B061143194304000623002930D063780078A2781B020343120413438022E07892020006184345180623954220D2FDF767FF2300CC
:405E800058331A78597802331B78090211431B04194323005B331A78062312060A4382420CD1637B207BA27B1B020343E07B1204134300061843FDF767FF0300180070BD1D
:405EC00037B500241C4B81201B7800940194012B14D11A48FFF7B2FF431E98418023184A9B001380174AC4001380FF229520164B52001A80154BD03AFF3A1A80210014F00A
:405F00004FF8134B1D6829002D0AE031ADB2002C0DD10A4B1C682200240AE032A4B2E02014F044F82800210014F05CF837BD80246A46A400F3E7C046E404002080FE010098
:405F4000E6040020E8040020EC040020EA04002080FF010010B50C4A0300127800209A420CD00730012B09D10848FFF767FF084B04221978002802D19143197010BD0A4388
:405F800006201A70FAE7C046E404002080FF01007011002030B5294A030012780E20002A18D00738002915D0254A12889A4211D8244A12889A4203D2234A12889A4209D16B
:405FC000802207209200934204D2204A1278002A01D1052030BD30241D4A0D00906A083DA04304001020204390621A4804392860FF200860184919488D604860C046C04615
:40600000C0468868000F04070A280FD114481B0403432B60134B8D604B60C046C046C0468B6800201B0F1B07A34200D00C203021936A8B4393620028CCD0CAE70C110020E7
:40604000E6040020E8040020EC0400200E11002000000340B6D700000000104004000080B6D800000500008010B50D4A0300080011780E22002910D0073A00280DD0094A82
:4060800011880722994208D2802189008B4204D2F932190213F06DFB0022100010BDC0460C110020EA04002010B5FDF7ABFEC03010BD0000F0B5037889B00093DB01019320
:4060C000F323079202905B00C35C019A0493CD4B0D009B181A0000212D32117080212E89C94A090232408A4200D0DBE0AA681A616A7A3B3352061B78920FD1B21C1C8B428E
:4061000000D9141C009ABF4BD201981806003B363470E1B2040001273F262C342770047C26408024644234430474E624029EFF34345D002C03D0049CBC4200D8AAE068788D
:40614000012864D1287AC006C00E013805285ED814F050F90371925D5D9BFF206C890002844254D1A948009C045D002C4FD09A182C321470009A9000A54A8558019A9B1835
:40618000180000229600AE5901320661D6B20430B442F7D8002930D1009A019DD001994A9C4E121850699C4ADB7DAA18D278050C9206520F3540D2022A433825120480B25B
:4061C0009B061043120E5B0F2A40182A00D10B00924ADB06104018431B0E283B5A425341009A0433D501874A9C4202D954192C3423708B4B5219184050613F20009B814AD5
:40620000DB01D3181A7C1040402202431A74009B7C4ADB01D218032360201940537C49018343194351740199764B1031C9180298079B984779E1FF206C8900028442E6D1D1
:406240007848009C045D002CE1D098182C30047001981B18002085002D6801301D61C5B20433AC42F7D83F20664B9A18137C1840402303431374CAE7009B6B4A5B00D35C80
:40628000042BC4D900231B78FFDE9B1801222D331A70BCE71F222B7A1340012BB7D02D300770B4E7B623029ADB00D35818000593FDF71EFE6A8983880392002B00D1C7E14F
:4062C0009A4200D0C4E1594F2B7A7A801822DB06DB0E06936B6856495C047B78F60593431A00082313437B703B88360F72010B4013433B80069B640F013CA400581EE4B275
:40630000132800D9A4E114F089F8140021003B0062007100A300BE00EE001B0133014501A3014B016E019201A3019201A30176017F01002C00D0CAE03E4B1B787B60002B8B
:4063400000D06FE12F33BB600334C9E0002C00D0BDE0E0210822381D13F00BFA364B37491B785B0702D4364B1968E031380008220C3013F0FEF900237B61BB610724AFE033
:40638000042C00D0A3E02B7B532B00D09FE02D4AF233FF33D358BB6000201F2223490B789343069A13430B70831C03D001340230E4B24860009B1348DB01C3182C331C708D
:4063C000019BA2001033181815F058FC2BE7042C00D07CE02B7B522B79D100201A4B1B681B699847831C68D0033CD6E7042C6ED12B7B4A2B00D017E1134B14481B681B6967
:40640000EFE7C046D40E0020C080FFFFB8110020BC1100207FC4FFFFE80E0020FFFFFFC7FFFF9FFFC8110020C41100209C1100201FFEFFFFE404002070110020781100208B
:4064400080FF010000F0FF0FEC2500204C420000042C3CD18A4A287B02211378502809D101258B432C004D38002B96D11170854A157091E70B4200D1D9E00020814B107064
:406480001870012489E7731E0A2B20D80B2E1CD0182C1CD118202900704318387A4B80B20830C01822000C3113F063F90122013EB2407648038893430380009BDA01744B57
:4064C0009B1802222D331A70ADE6102CE2D01822704901244B7893431A00102313434B700220404259E76C4F3B78DBB2042CEED1002BECD12B7B462BE9D1644E3288002A2E
:4065000000D097E06B7BAD7B64492D021D432800FFF740FD624B821C09D101223A709D4203D1604B1A7814431C7009B0F0BD5E4A32809D42A5D15B4B1A7814431C70A0E7F3
:40654000731E0A2BC3D8182231005143C9B20B2E00D1083A4C4B4F481039C9B2C918043013F007F9002CB2D105340B2EB8D005E7042CACD12B7B462BA9D1A87B6B7B00020C
:4065800046491843FFF770FD033C002800D004E7200002E7042C9AD1287BFFF7DBFC23E7082C00D093E76B7B2A7B1B02A87B1A43EB7B000410431B0618436B7C297CAA7CBD
:4065C0001B020B43E97C1204134309061943802342189B029A4200D379E713F0B9F82D4B063C18717CE7002C00D070E7FDF70AFCBC607860A8E6002C00D068E7EC237C60EC
:406600001B7802343B716BE7013EF3B2012B14D8FFF74AFD310109181022381D13F0A9F805245DE702245BE701240920B5E601240320B2E601240520AFE601240720ACE681
:4066400004999B182D330322012900D93BE714E00598FDF74DFC009B81880398DA010C4B8142EDD118219B18AA681A615A7C8A43110010220A435A742C33012223E7C04654
:406680000C1100200E11002000100020EE040020D40E00209C1100200D11002008100020FF01000070110020FF0700000C4A70B5956A926A032301241100AD081D40AC4060
:4066C00019401A4205D00023012905D1054B1B6802E0FDF7A5FB03006008C018E84070BD00000340840E0020F0B50A2185B013F09FFE7E4F84B27E685A2C00D25A24D423BC
:406700007B4A5B00FA501C33FB5864219B6803939878604313F08CFE764B0019984200D918003B78744A1B029A181278002A00D096E0724A72499A18591812780978521801
:40674000520870490192704A59189A18127809785218520800926D4A6D499A1814786D4A9A181278A4186C4A64089A1817786B4A9A181278BF186A4A7F089A185B181278C6
:406780001B78D3185B0802938A23584AFF33D55C019B4543002B00D194E0009B002B00D190E0002C00D18DE0002F00D18AE0029B002B00D186E03221280013F039FE594BEA
:4067C0009D4264D98222029B9200DB1B801A8221584313F0B7FEC719FCB2039BDD785B78022B11D1FFF762FF4F4913F021FE83B20A2068434D49584313F01AFE80B2051C07
:40680000202800D92025EDB2494B384A2402D5540FF0D7F9C022474973585B005B081343D6227350D200B35843490B402343B350B7580F403C43B450C13AFF3AB3583F494E
:406840009B0A9B02B3500B43B3501023103AB3500832B1580B43B3500FF0B7F905B0F0BD374A9A181278D2B20192364A9A181278D2B20092344A9A181478344AE4B29A1835
:406880001778334AFFB29B181B78DBB27BE7314B9D4204D93B00C3222700520095E72E4B9D4203D923008222009FF6E72B4A019B954203D91F008222009B86E70D2700223D
:4068C0007F4282E728006421323013F0B1FD282358430A21053013F0ABFD822800D282200A217D3813F0A4FDC4B276E7F4290020A94F0000120200005DF4FF0F31F4FF0F6D
:4069000045F4FF0F47F4FF0F33F4FF0F34F4FF0F4AF4FF0F48F4FF0F35F4FF0F49F4FF0F36F4FF0F8F650000C05D00001027000032020000BC080000FF00FFFF05060000C4
:4069400056F4FF0F57F4FF0F58F4FF0F59F4FF0F5AF4FF0F2B4C0000C732000063190000064B10B59C6AFFF7A1FE01232406A40FA3405B081818E04010BDC046000003400B
:4069800010B5FFF7EDFF041E12D0013C0949200013F04EFDFA21084B013018708900200013F046FD054B01301860054BC003186010BDC04640420F00C4040020C004002065
:4069C000BC040020F0B585B00EF096F88023444C1B062363236B002B1FDAFDF721FA414B98421AD00FF0EDF800213F4B3F4AE1503F4B0500D35C3F48DBB22350F1231B01A8
:406A0000E150D3239B00D35C3B4ADBB23220A3500FF0CEF828000FF0D8F80020FDF718FA0C22A36A354E9343A362A36AB4329343A362FFF7A5FF3022A36A9343A36280234E
:406A4000E26A1B061343E362236B002B2CDAFDF7E7F9B04228D00FF0B4F80021224D234A274B03906151D35C2248DBB22350F1231B01E150D9239B00D35C1F4ADBB2A35089
:406A8000322007270FF094F8052362593220BA43134363510FF08CF8062362590398BA43134363510FF091F8082304210122009314480023FEF7FEFE134B00201E60FDF798
:406AC000C7F90C22A36A9343A362A36AB4329343A3620EF011F8FFF753FF05B0F0BDC0460000034000366E01080F000000F0FF0F650300000C0F0000180F0000006CDC024A
:406B00007D03000000030440840E0020F0B501218BB0F94A029008F097FEF84D2B786C680595002B01D0F64B0593AB6828000693FDF7B6FC03902800FDF7BDFCF14F049097
:406B4000E559FFF7B3FD8622EF4B92009E58EF4913F06EFC310AFF263140013113F068FCED0AED020543E551343FE659FFF79EFD8622FA21E44B92009D58890013F058FCB8
:406B8000290AFF252940013113F052FC049913F04FFC760A013876020643E651E659FFF785FD8622D84B92009D58D94913F040FC290AFF252940013113F03AFC5423FA21CF
:406BC0005843890013F034FCD24B00031E400643039BE6515B7E012B01D000F0F2FE8023CD495B01625813436350CC4B0520E75809F090FC0500FFF759FD8622FA21C24BF3
:406C000092009E58890013F013FC310AFF263140013113F00DFC049913F00AFCC049033880020F40013D07432D053D430627BB493D43BC48655025580520079509F06AFC26
:406C40000500FFF733FD8622FA21AF4B92009E58890013F0EDFB310AFF263140013113F0E7FB049913F0E4FB0338AD4983020798013D084003432D051D43AA48AA493D43B1
:406C800025506658FFF712FD86229F4F9200A049BD5813F0CDFBFF23290A1940013113F0C7FBFA23FA21DB005843890013F0C0FB760A9D497602064366506658FFF7F6FC8E
:406CC000862293499200BD5813F0B2FBFF23290A1940013113F0ACFBFA23FA215B005843890013F0A5FB914B8F4980021E40904A06436650A3588F498F4E0B408F490498F9
:406D00000B43A3507F23A55915219D4313F090FB0543A5511421049813F08AFBA559884B00031D4005437548A5510378012B34D1039B28331E78002E2FD088239B01E25822
:406D40000492FDF7B8FB0700FFF7B0FC86216E4A89005558D131FF3113F06AFBFF22290A1140013113F064FB390013F061FB64270500B42130004900784313F059FB01300C
:406D8000C0B23900684313F053FB6E4B049A00051340184388239B01E050039B0533DD7F032D1AD05548FDF77BFB38300078052113F03EFB644F654BE65901301E40C0B273
:406DC000039B000406436D00383335431E78F60235436226FF363543E55148485C4E4568FDF75EFBC21CAB59D27F5A4937000B40D1030B43AB510300A95934331B78090134
:406E000009091B070B43AB510F26534B411CEB58C97FB3430B4350496B500100EB5932310978B3430B43EB514C4B04911F00011DEB58C97FB3430B43EB510300EE59F02703
:406E400035331B78BE431B011E43444B444FEE50444E831CAE59DB7F3E405B033343414E3330AB513D4B0078EB583F4FC6053B4033433A4EAB513D4BEE581F0006231E43DF
:406E8000EE513B4FEE593343EB51022801D800F0A2FD022901D800F0A9FD049B022B01D800F0AAFD022A01D800F0B1FD8022314992026B58FA209BB213436B502E49800023
:406EC0006B589BB21A4381236A500C4A9B00D35C64215843323013F0ABFA0A214843053013F0A6FAD623DB00E5582D022D0A822844D2822042E0C0465FC10100F429002090
:406F0000702700203422000000000140400D030040420F00FF0FFFFF1C22000010220000800308F81422000038220000FF03FEFF0422000001C0FFFF0C2200005407000026
:406F4000FF0F00F0FFFF0FF0082200000100F8FF50210000FF7FF8FF4C21000038210000FF1FFEFF3C210000FFFF7FF89C220000A02200005C210000442100000A217D3819
:406F800013F056FAD62314300006FD4A0543DB00E550A358FB499B0A9B020B43A350FA4AFA49A35801270B43A3508023F849DB04625886261343F74A6350A358F649F74DFE
:406FC0000B43F749A3506358B6003B436350F54BE2580492FFF76AFBAA5907000992FFF765FBAA5907900892FFF760FBEE4913F01FFAFF23AD59290A1940013113F018FA35
:40700000FA21EA4A8900504313F012FA0138E84A05030498E44910400543380013F008FAFF23099A110A1940013113F001FAA723FA215843890013F0FBF92A0040060243A7
:407040000492FFF733FBD8490700079813F0F0F9FF23089AD14D110A1940013113F0E8F97822FA21FF325043890013F0E1F90138AE59CD494500380013F0DAF9FF23310A52
:407080001940013113F0D4F9FA21CA4A8900504313F0CEF98023049A000510430543DB051D43C04BD821E550C023C3489B052258C900134323506258C04BC1481A40D82349
:4070C0005B0113436350BF4BBF49E25801270A40E2508022E158D2000A43E2508022E15812010A43E2501F22069BB84EA43319001B6893431A00082313430B608023A849D7
:40710000DB016258134363502358B14AB1491A408023DB03134323506258AF4B1A40822313430A0063506358AC490B40A350A358AB490B40A35080230432A1585B050B433B
:40714000A3500A23A7496258134363502358A64AA6491343A64A2350A358A6480B40A350A3593B43A351FDF79BF90300020007330832DB7FD07FA049A04A5943504313F0E5
:4071800057F90322A5599E4B80001D409D490543A551635893433B43635080239A491B0262581A436250039A527EBA4201D000F034FC9649964B62581A408023DB00134342
:4071C000602263509349635893431A002023134363509B23002205999B00CA540B009E21C9008C4663441A708B4B5C688B4B19789D68914201D000F024FCAB8A5B199B8834
:407200005B19CC331B888622FF265B19844F0393624B9200E5599958F020090A3140013113F006F98622ED0AED025C4B0543E5519200343FE55999587A48090A31400131F9
:4072400013F0F6F8C821490013F0F2F886226D0A01386D02514B0543E5519200E55999583020090A3140013113F0E2F85423FA215843890013F0DCF886226B4900030D4040
:40728000464B054369499200E55165589958F020090A314001319F5813F0CAF8052148435F3113F0C5F8624901380D40390A00053140054301315B4813F0BAF8C82149005C
:4072C00013F0B6F80621862203388002054357480D432550314B5748920027589958F020090A314001319D5813F0A2F805236421584313F09DF84E4B290A01381F400005E7
:40730000314007430131474813F092F8C821490013F08EF80621862203388002074345480F4327501D4F444892002558B9583020090A3140013113F07BF8FA23FA21DB00B6
:407340005843890013F074F886226D0A6D0205433948920025502558B9583020090A3140013113F065F8FA23FA215B005843890013F05EF8314B80021D40054360E0C0462F
:407380009422000007020000242200000000C05F2C210000302100000080840100000140342100002022000040420F001E020000810F08E0710200001C220000FF00FFFF57
:4073C000202100002C220000FFFDFFFF28210000FFFF07FFBC08000040FFFF7FFFFFF0FFFFFFFF9F1C210000000004C8FFFFFFFE24210000F429002088130000807D02008D
:4074000003FCFFFF0C2100001421000050210000EFFBFFF854210000782C0020941800203422000080BB0000FF0FFFFF10220000800308F81422000038220000FF03FEFFB5
:40744000FB48FC4A2550A358FB48FC4D0340FC482E000343A3507F22FA48FB4F235893431A001323134323502258F84B1A40A0235B02134323506359F548039A03400F20FA
:407480000332D27FD1030B436351039B615934331B78090109091B070B4303996351E3590131C97F83430B43E3516359039D834332352D78E74F2B43A351F0260399E35990
:4074C0000431C97F83430B43E351039BE05935331B78B0431B010343E351039B3E000233DB7FDD4F5B039C46E059DC4B1840634603430398E35133303700A3590078D84EEB
:407500003340C60533430626E351D64FE3593343E351D54FE3593343E351022800D897E2022900D89EE2022D00D8A1E2022A00D8A8E28022CD499202635801269BB213433B
:407540006350CB49CB4863589BB21A436250CA4ACA49A3589B0A9B020B43A350C84AC949A3580B43A3508022C749D204635813436350C649C64A635803436350C549302098
:40758000635833436350C44BE65886239B00D758D1580391D158D5581A3BFF3B090A1940013112F045FFBD494843CB31FF3112F03FFFBB4901380E40390AFF270003394034
:4075C00006430131302012F033FFA723FA215843890012F02DFF290A4006394006430131302012F025FFAF498C2548437831FF3112F01EFF03990005090A3940064301319E
:40760000302012F015FF7821FF314843FA21890012F00EFF8023013840000643DB051E439D4BA149E650C02362589B0513436350D821C90062589D4B9D481A40D8235B01EF
:40764000134363509B499C4B62580F001A4082231343635063582D01034063506358974997480B408021E351635949050B430A216351235801260B43235092489249235822
:40768000924A0B4323509248924923580B4060212350A35890483343A350A3588C4603400B43A3508D4A5D39A3588D488B433343A350684BE2581E008A4B1A4080231B02C3
:4076C0001343A3516222644B1F00E3589343423A1343E351594B1F00E35803408020C0000343E3516746804B1800E358BB431A43072322507D4C7E4822589A43023B134381
:407700002350C0230820DB00E2580243E2508022E05812040243E250A25930008026360532432250C020734A8001A758802638430927A050A05876050343A3506E4800978E
:4077400000230622FEF7B6F800970023062202216948FEF7AFF88720684B564F6849DA590A400243DA515A59324308265A515B4A9A583243594E9A510726DA59B243DA510D
:40778000802280266359D20413436351635936051E436651E3591F22194008438021E051635949050B43574963514B6F4B4893434B675549FF250B68012693431A001623DD
:4077C00013430B602358514A0F211340235023584F4A1A40E0235B041343235023584D4A13404D4A2350A3588B4308390B43A350E023A1589B010B430821A350474AA358DB
:407800005B0C5B04A3502358454A1340454A0B4311002350A3580620AB43A350A358424AFD3D1340635000223349FDF7EDFF7DE0382200000422000001C0FFFF502100007D
:40784000540700000C2200004C210000FF0F00F0FF7FF8FF382100003C210000FF1FFEFFFFFF7FF89C220000A02200005C2100004421000000808401942200000702000033
:40788000242200000000C05F2C210000302100000000014034210000202200001E020000810F08E0710200001C220000FF00FFFFFFFFF0FFBC08000040FFFF7FFFFFFF9F9D
:4078C0001C21000020210000000004C82821000024210000FFFFFFFE03FCFFFF0C210000EFFBFFF8FF7CFFF75421000000000B4068210000602100000000044000000A40E1
:4079000078FFF07F00FF0B4088FF0B40FFFFC3FFFFFF3FFCFFFFFFC31021000018210000E1FCFFFF14210000FF7FFFFF029B584C19789868FEF768F80A21C08E12F078FD7F
:40794000544B81B24808C01812F072FD0299030048638C63CE630D644F4A3100029807F073FF4E4B4E4A31215A640022DA64D9668F3119655965C0319965D9657139FF390A
:4079800059664849280099660299DA674A6B511EF240996502991A65434B0336CC500433CD50424BCE5042490DF052FA80208022C000A0602368D2041E432660A2600BB049
:4079C000F0BD022B01D0FFF710F9802339499B016258FFF708F9022908D8852189016858354B80B203436B50FFF757FA852189016858324B80B2F5E7022A08D83049314AFB
:407A00006B581A40304B13436B50FFF74FFA2C492C4A6B581A402D4BF5E72D482D4D215829400B43622123502B4823588B43190020230B432350022A01D1FFF7CAFBFFF765
:407A4000B8FB2800FDF7E0FFCC300388FFF7DBFB022907D8852189016058174B80B20343635060E5852189016058144B80B2F6E7022A07D81249134A63581A40124B134360
:407A8000635056E50E490F4A63581A400F4BF6E700000940005307006EC10100FC0009400B000004FF030000140700001C0700001CCB01001C220000000076770000767577
:407AC00054210000FF0300FC00DCCD0100DCC50138210000FF7CFFF73C2100002D4B2E4A73B5835000221A602C4A80211A602C4A89001A6207225A500131FF315A5004002A
:407B0000FEF7D4FDFA21890288421FD340011DD0FA235B02C01888423AD312F089FC80224309013B5202934210D280221D49D2008D581D4E1B0235402B43FF258B508B58FE
:407B4000C0002840073DAB43184388500221002208000DF0A3FB0E23802500930D3B1A0019001248FDF7A6FE114BED00DD67BFF34F8FBFF36F8F0A200E490DF04BFB0E4BD0
:407B80001D600E4B0E49E25897239B00D15073BD0C48C4E700000740440800000F0800810100008000000140FF0000FF0000044004E100E0AD3A000000E100E0040D00000C
:407BC000C13A00001F002000F0B5060087B015001F0044680491FEF769FD814912F028FC33780190029384239B00F7503000FCF757FC03900DF0E5FF7A4B7B4FE358059006
:407C00003B400093794BE058794B18406B461A8A002D49DB0026049BB34209DA8023524296B2009A9B001A4301230092002218431100ABB219434FD0802149000843110068
:407C400000229446049A954200DC95E0022280279043BF0007431A000497994204D04A1C92B2934200D10A006146664505D0013189B28E4201D0013EB1B2029800282ED145
:407C80000398C089019D4543280080256D02A8423DD2C025574FAD007D5900022E00564D35402843C02530E0049B002B10DD802300265B0018436B429BB29C468023009981
:407CC0009B0019434D4B0091184311000023B9E7524296B20022EEE70B008C46B2E70298012814D10398019DC0894543280080256D02A8420BD2C2253E4FAD007D5900023E
:407D00002E003D4D35402843C225AD0078517F263B4D1B046059B04308436051605939490140604600020143374861512158890A89020A4322502158344A0A4003211A43A9
:407D40002250284B009A0598E250049A274BE2502F4AA3588B43A350A823C022DB001206E250A9228023D200A158DB050B43A3500DF02BFF07B0F0BD022238400243049210
:407D80001A00994205D05A1C92B2914201D001398AB26146664504D0711C89B28C4500D131000298002802D10398008A6AE702980128ACD10398019D008A45432800802501
:407DC0006D02A842A3D2C2250A4FAD007D5900022E00094D35400543C22080003D5096E740420F000C210000FFFDFFFF4C200000FEFEFEFF00000140FF0000FF01000100E5
